:020000040000FA
:100000000C9462000C948A000C948A000C948A0070
:100010000C948A000C948A000C948A000C948A0038
:100020000C948A000C948A000C948A000C948A0028
:100030000C948A000C948A000C948A000C948A0018
:100040000C942E060C948A000C94FC050C94D60596
:100050000C948A000C948A000C948A000C948A00F8
:100060000C9478060C948A000000000024002700FD
:100070002A0000000000250028002B0000000008D6
:10008000000201000003040700000000000000005F
:1000900000000000230026002900040404040404D6
:1000A0000404020202020202030303030303010227
:1000B00004081020408001020408102001020408F6
:1000C0001020DC0711241FBECFEFD8E0DEBFCDBF6C
:1000D00011E0A0E0B1E0E8E8F6E102C005900D9281
:1000E000AE35B107D9F722E0AEE5B1E001C01D920F
:1000F000AA3DB207E1F710E0C2E6D0E004C02197C4
:10010000FE010E943C0BC136D107C9F70E942A08A4
:100110000C94420B0C94000008950895AF92BF9286
:10012000CF92DF92EF92FF920F931F93CF93DF93C3
:100130006C017B018B01040F151FEB015E01AE18F2
:10014000BF08C017D10759F06991D601ED91FC9114
:100150000190F081E02DC6010995892B79F7C50141
:10016000DF91CF911F910F91FF90EF90DF90CF9093
:10017000BF90AF900895FC01538D448D252F30E042
:10018000842F90E0821B930B541710F0CF960895A4
:1001900001970895FC01918D828D981761F0A28DD1
:1001A000AE0FBF2FB11D5D968C91928D9F5F9F7397
:1001B000928F90E008958FEF9FEF0895FC01918D4D
:1001C000828D981731F0828DE80FF11D858D90E0BA
:1001D00008958FEF9FEF0895FC01918D228D892F57
:1001E00090E0805C9F4F821B91098F73992708953F
:1001F00083E292E00E94EC0021E0892B09F420E0E8
:10020000822F089580E090E0892B29F00E94F80069
:1002100081110C9400000895FC01A48DA80FB92F42
:10022000B11DA35ABF4F2C91848D90E001968F731E
:100230009927848FA689B7892C93A089B1898C913D
:10024000837080648C93938D848D981306C002888C
:10025000F389E02D80818F7D80830895EF92FF9256
:100260000F931F93CF93DF93EC0181E0888F9B8DD9
:100270008C8D98131AC0E889F989808185FF15C093
:100280009FB7F894EE89FF896083E889F9898081B6
:100290008370806480839FBF81E090E0DF91CF9185
:1002A0001F910F91FF90EF900895F62E0B8D10E0A7
:1002B0000F5F1F4F0F731127E02E8C8D8E110CC016
:1002C0000FB607FCFACFE889F989808185FFF5CF61
:1002D000CE010E940C01F1CFEB8DEC0FFD2FF11D33
:1002E000E35AFF4FF0829FB7F8940B8FEA89FB899E
:1002F00080818062CFCFCF93DF93EC01888D8823FC
:10030000B9F0AA89BB89E889F9898C9185FD03C078
:10031000808186FD0DC00FB607FCF7CF8C9185FF5D
:10032000F2CF808185FFEDCFCE010E940C01E9CF95
:10033000DF91CF91089590E0FC01E458FF4F2491A4
:10034000FC01E255FF4F3491FC01E656FF4FE4916A
:10035000EE23C9F0222339F0233001F1A8F4213033
:1003600019F1223029F1F0E0EE0FFF1FEE58FF4F98
:10037000A591B4918FB7F894EC91611126C0309596
:100380003E233C938FBF08952730A9F02830C9F051
:10039000243049F7809180008F7D03C080918000D8
:1003A0008F7780938000DFCF84B58F7784BDDBCFDC
:1003B00084B58F7DFBCF8091B0008F778093B000A4
:1003C000D2CF8091B0008F7DF9CF3E2BDACFCF9383
:1003D000DF9390E0FC01E255FF4F249186569F4F3A
:1003E000FC0184918823D1F090E0880F991FFC01D3
:1003F000E859FF4FA591B491FC01EE58FF4FC5910C
:10040000D49161110EC09FB7F8948C91E22FE095C2
:100410008E238C932881E223E8839FBFDF91CF91C5
:1004200008958FB7F894EC91E22BEC938FBFF6CF41
:100430001F93CF93DF93182FEB0161E00E94E70138
:10044000209739F460E0812FDF91CF911F910C94B8
:100450009B01CF3FD10511F461E0F5CFE12FF0E032
:10046000E458FF4FE491E33031F140F4E130B1F072
:10047000E230E1F0C038D1057CF7E4CFE73029F174
:10048000E83059F1E430B1F78091800080628093C8
:100490008000D0938B00C0938A0004C084B580682C
:1004A00084BDC7BDDF91CF911F91089584B580624F
:1004B00084BDC8BDF7CF80918000806880938000A4
:1004C000D0938900C0938800EDCF8091B000806800
:1004D0008093B000C093B300E5CF8091B0008062FC
:1004E0008093B000C093B400DDCF3FB7F894809103
:1004F000150290911602A0911702B091180226B52C
:10050000A89B05C02F3F19F00196A11DB11D3FBF4B
:10051000BA2FA92F982F8827BC01CD01620F711D1A
:10052000811D911D42E0660F771F881F991F4A9514
:10053000D1F708958F929F92AF92BF92CF92DF92A0
:10054000EF92FF924B015C010E9475026B017C01EE
:100550000E9475026C197D098E099F09683E7340DF
:1005600081059105A8F321E0821A9108A108B1083C
:1005700088EEC80E83E0D81EE11CF11C81149104A2
:10058000A104B10429F7FF90EF90DF90CF90BF90C6
:10059000AF909F908F900895089520919F01260F0E
:1005A0003327331F21323105ECF42091E801FC019F
:1005B00090E080E0243069F082E00895A0919F01EE
:1005C0002191AC0141585E4FA40FB52FB11D2C9362
:1005D0000196861798F380919F01680F60939F01A1
:1005E00080E0089581E008951092E80181E0809311
:1005F000E7011092C20161E082E10E949B0161E08B
:1006000083E10E949B01E9EBF0E080818E7F808393
:1006100080818D7F808388E48093B80085E4809317
:10062000BC000895CF93DF9391E090937E018823DF
:10063000B9F0C091B800D091BA008091BC008A7B1B
:100640008093BC0060E082E10E949B0160E083E156
:100650000E949B010E94F402D093BA00C093B8009C
:10066000DF91CF9108950895E091220280912102B7
:10067000E81730F4F0E0E25AFE4F808190E00895F0
:100680008FEF9FEF089590912202809121022FEF2A
:100690003FEF981748F4E92FF0E0E25AFE4F20812F
:1006A00030E09F5F90932202C9010895809121025A
:1006B00090912202891B990B0895CF92DF92EF92BD
:1006C000FF920F931F93CF93DF937C01CB018A019D
:1006D0002091EE01222389F0EB016B01C40ED51E9F
:1006E000CC15DD0569F06991D701ED91FC91019080
:1006F000F081E02DC7010995F3CF642F0E94CD0250
:10070000C801DF91CF911F910F91FF90EF90DF9083
:10071000CF900895CF93DF931F92CDB7DEB7698353
:100720002091EE012223F9F020911F02203258F08F
:1007300021E030E0FC013383228390E080E00F90E1
:10074000DF91CF91089580912002E82FF0E0E151F0
:10075000FE4F998190838F5F8093200280931F02C8
:1007600081E090E0ECCF61E0CE0101960E94CD02E5
:10077000F7CFCF92DF92EF92FF920F931F93CF9319
:10078000DF93FC01C48121E02093EE01C0930F02AE
:100790001092200210921F028385682B80EC92E059
:1007A0000E948A03D0911F02D13208F092C00E94A9
:1007B00075026B017C018091E801811165C082E0C6
:1007C0008093E80181E08093E7018FEF8093E60159
:1007D0001092E501D093E401AFEEB1E0E4ECF1E07A
:1007E00080E0D81385C01092C3018091C301CC0F63
:1007F000C82BC093C3018091C201813009F07CC035
:100800001092C2010E9475026B017C018091C301AC
:100810008093BB008091EA019091EB01A091EC01E3
:10082000B091ED01892B8A2B8B2B99F00E947502D8
:100830000091EA011091EB012091EC013091ED0162
:100840006C197D098E099F090617170728073907B4
:10085000E0F18091BC0083FDD9CF85EC8093BC0092
:100860000E9475026B017C018091E801823009F4DD
:1008700045C08091E6018F3F61F18091E6018032B1
:1008800041F18091E60125C08091EA019091EB0150
:10089000A091EC01B091ED01892B8A2B8B2B09F4EF
:1008A0008ACF0E9475020091EA011091EB0120911C
:1008B000EC013091ED016C197D098E099F09061735
:1008C00017072807390708F076CF8091E9010E94C1
:1008D00012031092200210921F021092EE01DF917B
:1008E000CF911F910F91FF90EF90DF90CF900895DF
:1008F0009D9191938F5F75CF85EEB0CF8091EA0186
:100900009091EB01A091EC01B091ED01892B8A2B24
:100910008B2B09F4A9CF0E9475020091EA01109176
:10092000EB012091EC013091ED016C197D098E09EC
:100930009F09061717072807390708F095CFC5CF75
:1009400090E080E008950F931F93CF938C01C62F02
:100950000E94B9036C2F6460C8010E94B9036C2F18
:100960006B7FC8010E94B90383EC90E00197F1F717
:10097000CF911F910F9108950F931F93CF93DF9302
:100980008C01D62FC42F607F642B0E94A30480E1CA
:10099000D89FB00111246C2BC801DF91CF911F911A
:1009A0000F910C94A304CF93DF9310922202109224
:1009B00021021092200210921F020E94F4028CE881
:1009C00090E090931E0280931D028DE890E090933A
:1009D0001C0280931B021092D3028091D8028230B5
:1009E00018F098E09093D3028093D60262E370E00F
:1009F00080E090E00E949A026091D9028EEC92E031
:100A00000E94B90368EE73E080E090E00E949A02D1
:100A100060E38EEC92E00E94A304CBE4D6E4CE0126
:100A20000197F1F760E38EEC92E00E94A304219716
:100A3000F1F760E38EEC92E00E94A30483E592E07C
:100A40000197F1F760E28EEC92E00E94A3046091BE
:100A5000D302606240E08EEC92E00E94BC0484E02D
:100A60008093D40240E06CE08EEC92E00E94BC04E3
:100A700040E061E08EEC92E00E94BC04CBE3DFE159
:100A8000CE010197F1F782E08093D50240E066E065
:100A90008EEC92E00E94BC0440E062E08EEC92E0BA
:100AA0000E94BC042197F1F7DF91CF910895CF9375
:100AB000DF93CDB7DEB728970FB6F894DEBF0FBE31
:100AC000CDBF98E0E2E0F1E0DE01119601900D92D9
:100AD0009A95E1F79091D602981708F48FEF90E07D
:100AE000880F991F21E030E02C0F3D1F820F931FCC
:100AF000FC0160816F5F606840E08EEC92E02896B8
:100B00000FB6F894DEBF0FBECDBFDF91CF910C942E
:100B1000BC0441E00E94BC0481E090E00895FB0128
:100B200001900020E9F73197AF01461B570BDC011C
:100B3000ED91FC910280F381E02D099485ED809385
:100B4000BC008091EA019091EB01A091EC01B09181
:100B5000ED010796A11DB11D23E0B695A7959795C8
:100B600087952A95D1F72091BC0024FD03C01092EF
:100B7000E80108954091EA015091EB016091EC0188
:100B80007091ED01452B462B472B69F30097A1058A
:100B9000B10541F025E32A95F1F700000197A1097D
:100BA000B109E1CF8091E9010C9412031F920F92D9
:100BB0000FB60F9211242F933F934F935F936F9330
:100BC0007F938F939F93AF93BF93EF93FF9383E2B2
:100BD00092E00E940C01FF91EF91BF91AF919F9124
:100BE0008F917F916F915F914F913F912F910F90D6
:100BF0000FBE0F901F9018951F920F920FB60F9275
:100C000011242F938F939F93EF93FF93E0913302DF
:100C1000F09134028081E0913902F0913A0282FD34
:100C20001BC0908180913C028F5F8F7320913D02A9
:100C3000821741F0E0913C02F0E0ED5DFD4F958FB1
:100C400080933C02FF91EF919F918F912F910F9094
:100C50000FBE0F901F9018958081F4CF1F920F92B6
:100C60000FB60F9211242F933F938F939F93AF93BF
:100C7000BF938091110290911202A0911302B09142
:100C800014023091100223E0230F2D3758F50196FE
:100C9000A11DB11D209310028093110290931202A6
:100CA000A0931302B0931402809115029091160242
:100CB000A0911702B09118020196A11DB11D809359
:100CC000150290931602A0931702B0931802BF91D9
:100CD000AF919F918F913F912F910F900FBE0F90E9
:100CE0001F90189526E8230F0296A11DB11DD2CFA3
:100CF0001F920F920FB60F9211242F933F934F9391
:100D00005F936F937F938F939F93AF93BF93EF9373
:100D1000FF938091B900887F803609F44AC0F0F5CE
:100D2000883209F4A7C018F5803109F49BC0B8F4E3
:100D3000882309F4F9C0883009F494C0FF91EF9139
:100D4000BF91AF919F918F917F916F915F914F91E3
:100D50003F912F910F900FBE0F901F9018958831E3
:100D600009F488C0803251F78093E60114C08034C2
:100D700009F49DC040F48033B9F38833F9F68093C9
:100D8000E60185ECB0C0803509F485C0883509F4EA
:100D900096C0883499F60E949E05D0CF883909F410
:100DA0008CC038F5883729F050F4883611F0803738
:100DB00029F683E08093E8011092C10157C088387A
:100DC00009F47BC0803919F0803809F0B7CF8091E1
:100DD000C101803208F071C0E091C10181E08E0F45
:100DE0008093C1018091BB00F0E0EF55FE4F8083FE
:100DF0003DC0803B39F0E0F4803A09F479C0883A8C
:100E000009F09CCF84E08093E8011092A001109239
:100E10009F01E0911D02F0911E02099580919F01B2
:100E200081110FC081E080939F0110927F0109C062
:100E3000803C09F4A6CF883C09F4A3CF883B09F095
:100E40007DCFE091A00181E08E0F8093A001F0E0C2
:100E5000E158FE4F80818093BB009091A00180916A
:100E60009F0129C08091C3018093BB0085EC8093D2
:100E7000BC0064CF9091E5018091E401981758F58A
:100E8000E091E50181E08E0F8093E501F0E0EC5305
:100E9000FE4F8081E9CFE091E50181E08E0F8093E4
:100EA000E5018091BB00F0E0EC53FE4F8083909110
:100EB000E5018091E4019817C8F285E8D8CFE09168
:100EC000E50181E08E0F8093E5018091BB00F0E0A9
:100ED000EC53FE4F80838091E70181115CCF81E06C
:100EE0008093C20184EA8093BC001092E80126CF6F
:100EF00085EC8093BC001092E8018091C1018032A2
:100F000030F4E091C101F0E0EF55FE4F10826091A6
:100F1000C10170E0E0911B02F0911C0281EA91E0B6
:100F200009951092C1010ACF1092E60134CFCF92F9
:100F3000DF92EF92FF920F931F93E82FF92F05C0D6
:100F4000015011092109310961F19081962394170B
:100F5000B9F305C0015011092109310911F190813E
:100F600096239413F7CFC12CD12CE12CF12C0AC07D
:100F70008FEFC81AD80AE80AF80A0C151D052E05C5
:100F80003F0579F080818623841791F36C2D7D2DA8
:100F90008E2D9F2D1F910F91FF90EF90DF90CF909E
:100FA000089560E070E080E090E01F910F91FF9065
:100FB000EF90DF90CF900895E3E2F2E01382128287
:100FC00088EE93E0A0E0B0E084839583A683B783A6
:100FD0002EE031E03183208325EC30E03587248713
:100FE00024EC30E03787268720EC30E0318B208BF3
:100FF00021EC30E0338B228B22EC30E0358B248BDC
:1010000026EC30E0378B268B118E128E138E148EC9
:10101000E0ECF2E01382128284839583A683B78387
:1010200080E291E091838083EEECF2E01382128201
:1010300082E391E09183808387E2848384E18187E6
:1010400084E08287138687E390E09093CD028093BB
:10105000CC020895CF93DF93CDB7DEB7A1970FB63B
:10106000F894DEBF0FBECDBF789484B5826084BD96
:1010700084B5816084BD85B5826085BD85B581609C
:1010800085BD80916E00816080936E00109281001A
:1010900080918100826080938100809181008160D5
:1010A0008093810080918000816080938000809196
:1010B000B10084608093B1008091B0008160809322
:1010C000B00080917A00846080937A0080917A00E9
:1010D000826080937A0080917A00816080937A00A8
:1010E00080917A00806880937A001092C1000E94FB
:1010F000D3040E94D30488E08093D90260E08EEC90
:1011000092E00E94B90361E083E00E94E70161E0A0
:1011100084E00E94E70160E082E00E94E701E09144
:101120003302F091340282E08083E0912F02F0914B
:1011300030021082E0913102F09132028FEC808314
:1011400010923B02E0913702F091380286E08083F2
:10115000E0913502F0913602808180618083E091D8
:101160003502F0913602808188608083E0913502FB
:10117000F0913602808180688083E0913502F091A1
:10118000360280818F7D808323E2222E312C3AE04B
:10119000C32ED12CE12CF12C45EF842E912C90E024
:1011A000A92E90E0B92E80E00E9457056AE371E015
:1011B0008EEC92E00E948F0581E00E94570566E464
:1011C00071E08EEC92E00E948F0560E084E00E9466
:1011D0009B0183E090E00197F1F761E084E00E94D9
:1011E0009B01C1010197F1F760E084E00E949B013F
:1011F000E0EBF0E06491ECE9F0E08491E82FF0E0BE
:10120000EE0FFF1FE057FF4F8591949100E412E429
:101210002FE030E0462F0E94970761157105810588
:10122000910529F06F5F7F4F8F4F9F4F9F700E94F6
:10123000210A26E933E44BE05DE30E94850A20E0C1
:1012400030E040E05FE30E94850A0E94E909709364
:101250001A02609319026CE471E083E292E00E944A
:101260008F054090190250901A02052C000C660858
:10127000770877FE60C06DE283E292E00E942E0163
:1012800022273327A901241935094609570919A22C
:101290008E010F5D1F4FCA01B901A70196010E947F
:1012A0001A0B605DF80162938F012115310541052C
:1012B000510589F7BF01EF2B09F056C067E571E0D2
:1012C00083E292E00E948F056BE571E083E292E099
:1012D0000E948F056090CC027090CD02F7E36F16EC
:1012E000710409F046C067E370E083E00E941802D1
:1012F00081E090E09093010180930001E1E4F0E04F
:10130000F093CD02E093CC020EEF10E0B80183E041
:101310000E9418020150110907331105B9F7A114F1
:10132000B10409F440CF0E94F800882309F437CFB4
:101330000E94000034CFA301920119A2CE01819630
:101340003C01CA01B901A70196010E941A0B605D18
:10135000F30162933F01211531054105510589F7DC
:10136000309709F4ABCFBF0183E292E00E948F0572
:10137000A5CFFFEF6F16710471F46FEF70E083E09B
:101380000E94180210920101109200019092CD0269
:101390008092CC02B9CF80910001909101018130FF
:1013A000910561F4B30183E00E9418028AE0680E9F
:1013B000711C7092CD026092CC02A6CF892B09F0ED
:1013C000A3CFB30183E00E9418029AE0691A710862
:1013D000F0CF0E94F0096894B1110C947F0A08952F
:1013E0000E94640A88F09F5798F0B92F9927B75147
:1013F000B0F0E1F0660F771F881F991F1AF0BA95B9
:10140000C9F714C0B13091F00E947E0AB1E008958E
:101410000C947E0A672F782F8827B85F39F0B93F80
:10142000CCF3869577956795B395D9F73EF490956B
:101430008095709561957F4F8F4F9F4F0895E894E9
:1014400009C097FB3EF490958095709561957F4F0C
:101450008F4F9F4F9923A9F0F92F96E9BB279395BA
:10146000F695879577956795B795F111F8CFFAF4CA
:10147000BB0F11F460FF1BC06F5F7F4F8F4F9F4FFB
:1014800016C0882311F096E911C0772321F09EE859
:10149000872F762F05C0662371F096E8862F70E0BF
:1014A00060E02AF09A95660F771F881FDAF7880F99
:1014B0009695879597F9089557FD9058440F551FB5
:1014C00059F05F3F71F04795880F97FB991F61F0C6
:1014D0009F3F79F087950895121613061406551F3D
:1014E000F2CF4695F1DF08C0161617061806991FA9
:1014F000F1CF86957105610508940895E894BB279E
:1015000066277727CB0197F908950E94980A0C94D3
:10151000090B0E94FB0A38F00E94020B20F0952371
:1015200011F00C94F20A0C94F80A11240C947F0A1E
:101530000E945C0A70F3959FC1F3950F50E0551F10
:10154000629FF001729FBB27F00DB11D639FAA2718
:10155000F00DB11DAA1F649F6627B00DA11D661F67
:10156000829F2227B00DA11D621F739FB00DA11D88
:10157000621F839FA00D611D221F749F3327A00D42
:10158000611D231F849F600D211D822F762F6A2FDE
:1015900011249F5750409AF0F1F088234AF0EE0F43
:1015A000FF1FBB1F661F771F881F91505040A9F770
:1015B0009E3F510580F00C94F20A0C947F0A5F3F25
:1015C000E4F3983ED4F3869577956795B795F795AC
:1015D000E7959F5FC1F7FE2B880F911D9695879524
:1015E00097F9089597F99F6780E870E060E00895A3
:1015F0009FEF80EC089500240A941616170618062B
:101600000906089500240A94121613061406050606
:101610000895092E0394000C11F4882352F0BB0F97
:1016200040F4BF2B11F460FF04C06F5F7F4F8F4FFA
:101630009F4F0895A1E21A2EAA1BBB1BFD010DC0EE
:10164000AA1FBB1FEE1FFF1FA217B307E407F50772
:1016500020F0A21BB30BE40BF50B661F771F881F4E
:10166000991F1A9469F760957095809590959B01E4
:10167000AC01BD01CF010895EE0FFF1F0590F4915D
:10168000E02D0994F894FFCF010000004000140001
:101690005400000000002E018E00BB007B01EC0016
:1016A000CA00DE00000000008A035D03A0043303CB
:1016B0005603430334030000000089058E00A00494
:1016C000CC0268656C6C6F20776F726C640050653B
:1016D0006163650044697374616E63653A2000203C
:0616E000636D000D0A001D
:107E0000112484B714BE81FFF0D085E080938100F7
:107E100082E08093C00088E18093C10086E0809377
:107E2000C20080E18093C4008EE0C9D0259A86E02C
:107E300020E33CEF91E0309385002093840096BBD3
:107E4000B09BFECF1D9AA8958150A9F7CC24DD24C4
:107E500088248394B5E0AB2EA1E19A2EF3E0BF2EE7
:107E6000A2D0813461F49FD0082FAFD0023811F036
:107E7000013811F484E001C083E08DD089C08234E0
:107E800011F484E103C0853419F485E0A6D080C0E4
:107E9000853579F488D0E82EFF2485D0082F10E0AE
:107EA000102F00270E291F29000F111F8ED06801E7
:107EB0006FC0863521F484E090D080E0DECF843638
:107EC00009F040C070D06FD0082F6DD080E0C81688
:107ED00080E7D80618F4F601B7BEE895C0E0D1E017
:107EE00062D089930C17E1F7F0E0CF16F0E7DF06D8
:107EF00018F0F601B7BEE89568D007B600FCFDCFD4
:107F0000A601A0E0B1E02C9130E011968C91119780
:107F100090E0982F8827822B932B1296FA010C0160
:107F200087BEE89511244E5F5F4FF1E0A038BF0790
:107F300051F7F601A7BEE89507B600FCFDCF97BE46
:107F4000E89526C08437B1F42ED02DD0F82E2BD052
:107F50003CD0F601EF2C8F010F5F1F4F84911BD097
:107F6000EA94F801C1F70894C11CD11CFA94CF0C13
:107F7000D11C0EC0853739F428D08EE10CD085E9AC
:107F80000AD08FE07ACF813511F488E018D01DD067
:107F900080E101D065CF982F8091C00085FFFCCF94
:107FA0009093C60008958091C00087FFFCCF809118
:107FB000C00084FD01C0A8958091C6000895E0E648
:107FC000F0E098E1908380830895EDDF803219F02E
:107FD00088E0F5DFFFCF84E1DECF1F93182FE3DFCA
:107FE0001150E9F7F2DF1F91089580E0E8DFEE27F6
:047FF000FF270994CA
:027FFE00040479
:00000001FF
